{
  "_format": "hh-sol-artifact-1",
  "contractName": "SimpleVoting",
  "sourceName": "contracts/SimpleVoting.sol",
  "abi": [
    {
      "inputs": [
        {
          "internalType": "uint256",
          "name": "_deadline",
          "type": "uint256"
        }
      ],
      "stateMutability": "nonpayable",
      "type": "constructor"
    },
    {
      "anonymous": false,
      "inputs": [
        {
          "indexed": false,
          "internalType": "string",
          "name": "name",
          "type": "string"
        }
      ],
      "name": "CandidateAdded",
      "type": "event"
    },
    {
      "anonymous": false,
      "inputs": [
        {
          "indexed": false,
          "internalType": "address",
          "name": "voter",
          "type": "address"
        },
        {
          "indexed": false,
          "internalType": "uint256",
          "name": "candidateIndex",
          "type": "uint256"
        }
      ],
      "name": "Voted",
      "type": "event"
    },
    {
      "inputs": [
        {
          "internalType": "string",
          "name": "_name",
          "type": "string"
        }
      ],
      "name": "addCandidate",
      "outputs": [],
      "stateMutability": "nonpayable",
      "type": "function"
    },
    {
      "inputs": [],
      "name": "candidateCount",
      "outputs": [
        {
          "internalType": "uint256",
          "name": "",
          "type": "uint256"
        }
      ],
      "stateMutability": "view",
      "type": "function"
    },
    {
      "inputs": [
        {
          "internalType": "uint256",
          "name": "",
          "type": "uint256"
        }
      ],
      "name": "candidates",
      "outputs": [
        {
          "internalType": "string",
          "name": "name",
          "type": "string"
        },
        {
          "internalType": "uint256",
          "name": "voteCount",
          "type": "uint256"
        }
      ],
      "stateMutability": "view",
      "type": "function"
    },
    {
      "inputs": [],
      "name": "deadline",
      "outputs": [
        {
          "internalType": "uint256",
          "name": "",
          "type": "uint256"
        }
      ],
      "stateMutability": "view",
      "type": "function"
    },
    {
      "inputs": [
        {
          "internalType": "uint256",
          "name": "_index",
          "type": "uint256"
        }
      ],
      "name": "getCandidate",
      "outputs": [
        {
          "internalType": "string",
          "name": "",
          "type": "string"
        },
        {
          "internalType": "uint256",
          "name": "",
          "type": "uint256"
        }
      ],
      "stateMutability": "view",
      "type": "function"
    },
    {
      "inputs": [],
      "name": "getOwner",
      "outputs": [
        {
          "internalType": "address",
          "name": "",
          "type": "address"
        }
      ],
      "stateMutability": "view",
      "type": "function"
    },
    {
      "inputs": [
        {
          "internalType": "address",
          "name": "",
          "type": "address"
        }
      ],
      "name": "hasVoted",
      "outputs": [
        {
          "internalType": "bool",
          "name": "",
          "type": "bool"
        }
      ],
      "stateMutability": "view",
      "type": "function"
    },
    {
      "inputs": [
        {
          "internalType": "uint256",
          "name": "_candidateIndex",
          "type": "uint256"
        }
      ],
      "name": "vote",
      "outputs": [],
      "stateMutability": "nonpayable",
      "type": "function"
    }
  ],
  "bytecode": "0x6080604052348015600f57600080fd5b506040516111263803806111268339818101604052810190602f919060b1565b336000806101000a81548173ffffffffffffffffffffffffffffffffffffffff021916908373ffffffffffffffffffffffffffffffffffffffff160217905550806001819055505060d9565b600080fd5b6000819050919050565b6091816080565b8114609b57600080fd5b50565b60008151905060ab81608a565b92915050565b60006020828403121560c45760c3607b565b5b600060d084828501609e565b91505092915050565b61103e806100e86000396000f3fe608060405234801561001057600080fd5b50600436106100885760003560e01c806335b8e8201161005b57806335b8e82014610128578063462e91ec14610159578063893d20e814610175578063a9a981a31461019357610088565b80630121b93f1461008d57806309eef43e146100a957806329dcb0cf146100d95780633477ee2e146100f7575b600080fd5b6100a760048036038101906100a29190610709565b6101b1565b005b6100c360048036038101906100be9190610794565b610398565b6040516100d091906107dc565b60405180910390f35b6100e16103b8565b6040516100ee9190610806565b60405180910390f35b610111600480360381019061010c9190610709565b6103be565b60405161011f9291906108b1565b60405180910390f35b610142600480360381019061013d9190610709565b61047a565b6040516101509291906108b1565b60405180910390f35b610173600480360381019061016e9190610a16565b61055e565b005b61017d610689565b60405161018a9190610a6e565b60405180910390f35b61019b6106b2565b6040516101a89190610806565b60405180910390f35b60015442106101f5576040517f08c379a00000000000000000000000000000000000000000000000000000000081526004016101ec90610ad5565b60405180910390fd5b600360003373ffffffffffffffffffffffffffffffffffffffff1673ffffffffffffffffffffffffffffffffffffffff16815260200190815260200160002060009054906101000a900460ff1615610282576040517f08c379a000000000000000000000000000000000000000000000000000000000815260040161027990610b41565b60405180910390fd5b60028054905081106102c9576040517f08c379a00000000000000000000000000000000000000000000000000000000081526004016102c090610bad565b60405180910390fd5b600281815481106102dd576102dc610bcd565b5b906000526020600020906002020160010160008154809291906102ff90610c2b565b91905055506001600360003373ffffffffffffffffffffffffffffffffffffffff1673ffffffffffffffffffffffffffffffffffffffff16815260200190815260200160002060006101000a81548160ff0219169083151502179055507f4d99b957a2bc29a30ebd96a7be8e68fe50a3c701db28a91436490b7d53870ca4338260405161038d929190610c73565b60405180910390a150565b60036020528060005260406000206000915054906101000a900460ff1681565b60015481565b600281815481106103ce57600080fd5b90600052602060002090600202016000915090508060000180546103f190610ccb565b80601f016020809104026020016040519081016040528092919081815260200182805461041d90610ccb565b801561046a5780601f1061043f5761010080835404028352916020019161046a565b820191906000526020600020905b81548152906001019060200180831161044d57829003601f168201915b5050505050908060010154905082565b60606000806002848154811061049357610492610bcd565b5b90600052602060002090600202016040518060400160405290816000820180546104bc90610ccb565b80601f01602080910402602001604051908101604052809291908181526020018280546104e890610ccb565b80156105355780601f1061050a57610100808354040283529160200191610535565b820191906000526020600020905b81548152906001019060200180831161051857829003601f168201915b505050505081526020016001820154815250509050806000015181602001519250925050915091565b60008054906101000a900473ffffffffffffffffffffffffffffffffffffffff1673ffffffffffffffffffffffffffffffffffffffff163373ffffffffffffffffffffffffffffffffffffffff16146105ec576040517f08c379a00000000000000000000000000000000000000000000000000000000081526004016105e390610d48565b60405180910390fd5b600260405180604001604052808381526020016000815250908060018154018082558091505060019003906000526020600020906002020160009091909190915060008201518160000190816106429190610f14565b506020820151816001015550507ff29562dad1599aea0ebb142466120aab326d5efa8f839df82a9c064bf78e89388160405161067e9190610fe6565b60405180910390a150565b60008060009054906101000a900473ffffffffffffffffffffffffffffffffffffffff16905090565b6000600280549050905090565b6000604051905090565b600080fd5b600080fd5b6000819050919050565b6106e6816106d3565b81146106f157600080fd5b50565b600081359050610703816106dd565b92915050565b60006020828403121561071f5761071e6106c9565b5b600061072d848285016106f4565b91505092915050565b600073ffffffffffffffffffffffffffffffffffffffff82169050919050565b600061076182610736565b9050919050565b61077181610756565b811461077c57600080fd5b50565b60008135905061078e81610768565b92915050565b6000602082840312156107aa576107a96106c9565b5b60006107b88482850161077f565b91505092915050565b60008115159050919050565b6107d6816107c1565b82525050565b60006020820190506107f160008301846107cd565b92915050565b610800816106d3565b82525050565b600060208201905061081b60008301846107f7565b92915050565b600081519050919050565b600082825260208201905092915050565b60005b8381101561085b578082015181840152602081019050610840565b60008484015250505050565b6000601f19601f8301169050919050565b600061088382610821565b61088d818561082c565b935061089d81856020860161083d565b6108a681610867565b840191505092915050565b600060408201905081810360008301526108cb8185610878565b90506108da60208301846107f7565b9392505050565b600080fd5b600080fd5b7f4e487b7100000000000000000000000000000000000000000000000000000000600052604160045260246000fd5b61092382610867565b810181811067ffffffffffffffff82111715610942576109416108eb565b5b80604052505050565b60006109556106bf565b9050610961828261091a565b919050565b600067ffffffffffffffff821115610981576109806108eb565b5b61098a82610867565b9050602081019050919050565b82818337600083830152505050565b60006109b96109b484610966565b61094b565b9050828152602081018484840111156109d5576109d46108e6565b5b6109e0848285610997565b509392505050565b600082601f8301126109fd576109fc6108e1565b5b8135610a0d8482602086016109a6565b91505092915050565b600060208284031215610a2c57610a2b6106c9565b5b600082013567ffffffffffffffff811115610a4a57610a496106ce565b5b610a56848285016109e8565b91505092915050565b610a6881610756565b82525050565b6000602082019050610a836000830184610a5f565b92915050565b7f566f74696e6720656e6465640000000000000000000000000000000000000000600082015250565b6000610abf600c8361082c565b9150610aca82610a89565b602082019050919050565b60006020820190508181036000830152610aee81610ab2565b9050919050565b7f416c726561647920766f74656400000000000000000000000000000000000000600082015250565b6000610b2b600d8361082c565b9150610b3682610af5565b602082019050919050565b60006020820190508181036000830152610b5a81610b1e565b9050919050565b7f496e76616c69642063616e646964617465000000000000000000000000000000600082015250565b6000610b9760118361082c565b9150610ba282610b61565b602082019050919050565b60006020820190508181036000830152610bc681610b8a565b9050919050565b7f4e487b7100000000000000000000000000000000000000000000000000000000600052603260045260246000fd5b7f4e487b7100000000000000000000000000000000000000000000000000000000600052601160045260246000fd5b6000610c36826106d3565b91507fffffffffffffffffffffffffffffffffffffffffffffffffffffffffffffffff8203610c6857610c67610bfc565b5b600182019050919050565b6000604082019050610c886000830185610a5f565b610c9560208301846107f7565b9392505050565b7f4e487b7100000000000000000000000000000000000000000000000000000000600052602260045260246000fd5b60006002820490506001821680610ce357607f821691505b602082108103610cf657610cf5610c9c565b5b50919050565b7f4e6f74206f776e65720000000000000000000000000000000000000000000000600082015250565b6000610d3260098361082c565b9150610d3d82610cfc565b602082019050919050565b60006020820190508181036000830152610d6181610d25565b9050919050565b60008190508160005260206000209050919050565b60006020601f8301049050919050565b600082821b905092915050565b600060088302610dca7fffffffffffffffffffffffffffffffffffffffffffffffffffffffffffffffff82610d8d565b610dd48683610d8d565b95508019841693508086168417925050509392505050565b6000819050919050565b6000610e11610e0c610e07846106d3565b610dec565b6106d3565b9050919050565b6000819050919050565b610e2b83610df6565b610e3f610e3782610e18565b848454610d9a565b825550505050565b600090565b610e54610e47565b610e5f818484610e22565b505050565b5b81811015610e8357610e78600082610e4c565b600181019050610e65565b5050565b601f821115610ec857610e9981610d68565b610ea284610d7d565b81016020851015610eb1578190505b610ec5610ebd85610d7d565b830182610e64565b50505b505050565b600082821c905092915050565b6000610eeb60001984600802610ecd565b1980831691505092915050565b6000610f048383610eda565b9150826002028217905092915050565b610f1d82610821565b67ffffffffffffffff811115610f3657610f356108eb565b5b610f408254610ccb565b610f4b828285610e87565b600060209050601f831160018114610f7e5760008415610f6c578287015190505b610f768582610ef8565b865550610fde565b601f198416610f8c86610d68565b60005b82811015610fb457848901518255600182019150602085019450602081019050610f8f565b86831015610fd15784890151610fcd601f891682610eda565b8355505b6001600288020188555050505b505050505050565b600060208201905081810360008301526110008184610878565b90509291505056fea2646970667358221220817788d0ad7bead7730ce6466716c54939d4c37e85d26d1164297915116f170a64736f6c634300081c0033",
  "linkReferences": {},
  "deployedLinkReferences": {}
}